:020000040800F2
:1000000058100020A5020008FD450008513E0008D8
:10001000D54300089D040008456400080000000066
:10002000000000000000000000000000054600087D
:10003000B507000800000000014600080946000856
:10004000BF020008BF020008BF020008BF0200088C
:10005000BF020008BF020008BF020008BF0200087C
:10006000BF020008BF020008BF020008A90700087D
:10007000BF020008BF020008BF020008BF0200085C
:10008000BF02000800000000BF020008E162000893
:10009000ED620008BF020008BF020008BF020008AE
:1000A000BF020008BF020008BF020008BF0200082C
:1000B000BF020008BF020008BF020008BF0200081C
:1000C000BF020008BF020008BF020008BF0200080C
:1000D000BF020008BF020008BF020008BF020008FC
:1000E000B9070008BF020008BF020008BF020008ED
:1000F000BF020008BF020008BF02000800000000A5
:1001000000000000BF02000800000000BF0200085D
:10011000BF02000800000000BF020008BF02000884
:10012000BF020008BF020008BF020008BF020008AB
:10013000BF0200080000000000000000BF0200082D
:10014000BF020008BF02000800000000000000001D
:10015000000000000000000000000000000000009F
:10016000000000000000000000000000BF020008C6
:10017000BF020008000000000000000000000000B6
:1001800000000000BF0200080000000000000000A6
:10019000000000000000000000000000000000005F
:1001A0000000000000000000BF020008BF020008BD
:1001B000BF020008BF020008BF02000800000000E4
:1001C00000000000BF020008000000000000000066
:1001D000BF020008BF02000800F002F800F052F869
:1001E00014A696E8000CB244B344DA4501D100F0FD
:1001F00049F8BAE80F000FA696E83000A5EB040511
:1002000004EB0607AAEB0704A7F101074FEA15154F
:100210004FEA3414A4F10104AC4201D300F032F8E7
:1002200013F0010F18BFFB1A43F0010300F001F8AF
:10023000DBE718472474000044740000103A24BF20
:1002400078C878C1FAD8520724BF30C830C144BF3B
:1002500004680C6070470000704700000023002411
:1002600000250026103A28BF78C1FBD8520728BFC6
:1002700030C148BF0B6070471FB506F0B7F91FBD0E
:1002800010B510BD00F0D4F81146FFF7F5FF06F0E9
:10029000DBF800F0F2F803B4FFF7F2FF03BC00F064
:1002A000F5F800000948804709480047FEE7FEE7E7
:1002B000FEE7FEE7FEE7FEE7FEE7FEE7FEE7FEE716
:1002C00004480549054A064B704700007D46000872
:1002D000D9010008580A002058100020580C0020AE
:1002E000580C002053EA020C00F069802DE9F04B15
:1002F0004FF00006002B1FBFB3FA83F503FA05F495
:1003000024FA05F65E4012BF1643B2FA82F502FAED
:1003100005F4C5F120051EBF22FA05FC44EA0C04D1
:10032000203556EA044C4FEA144418BF641C4FF0C1
:1003300000084FF00009904271EB030C39D30029FB
:1003400019BFB1FA81F701FA07F6B0FA80F700FA9F
:1003500007F6C7F120071EBF20FA07FC46EA0C0685
:100360002037B6FBF4FCA7EB0507103F07F01F0B87
:10037000CBF120062CFA06F60CFA0BFB44BFB34671
:100380000026202FA4BF5E464FF0000B5BEA060C50
:1003900008BF4FF0010B19EB0B0948EB0608ABFB4C
:1003A000027C06FB02CC0BFB03CCC01B71EB0C01E7
:1003B000C1E70B46024641464846BDE8F08B13B5FF
:1003C000084318BF4FF0FF300146AFF30080BDE88F
:1003D0001C4070474FF0000200B513469446964605
:1003E000203922BFA0E80C50A0E80C50B1F1200148
:1003F000BFF4F7AF090728BFA0E80C5048BF0CC0F6
:100400005DF804EB890028BF40F8042B08BF704753
:1004100048BF20F8022B11F0804F18BF00F8012BC5
:1004200070477047704770470048704710000020C1
:100430007546FFF7F9FFAE4605006946534620F0C2
:100440000700854618B020B5FFF73AFFBDE8204009
:100450004FF000064FF000074FF000084FF0000B80
:10046000AC46ACE8C009ACE8C009ACE8C009ACE8EF
:10047000C00921F007018D46704710B50446AFF35F
:1004800000802046BDE81040FFF705BF0149182055
:10049000ABBEFEE72600020070470000FEE700004A
:1004A000B0B590ED0F1A90ED102A9FED773ABEEEA1
:1004B000000A22EE000A21EE034A9FED745A34EE40
:1004C000004A0021B5EE402A21EE055AF1EE10FA5D
:1004D000C8BF0121B5EE404A35EE000AF1EE10FA30
:1004E000C8BF0231B0F84820B5EE400AF1EE10FA6C
:1004F000C8BF043100EE102AA1F1010EBEF1050FB4
:10050000B8EE400A46D89FED624AB7EE086A20EE80
:10051000044A22EE044A21EE066A22EE032A90EDF6
:10052000115A22EE002A26EE003A33EE023A83EE0A
:10053000053ABFEE086A21EE061A21EE001A31EEE6
:10054000021A84EE054A81EE052AB0EE431ADFE86E
:100550000EF025030F15091BB1EE441AB0EE432A25
:100560001CE000BFB1EE431AB0EE442A16E000BF13
:10057000B1EE422AB0EE441A10E000BFB0EE421ACB
:10058000B1EE442A0AE000BFB1EE421AB1EE432AAE
:1005900004E000BF9FED3F1AB0EE412AB0F84A10C8
:1005A00031EE023A04EE101AB8EE444A22EE045A32
:1005B00021EE046AB4EE443A86EE036A85EE035AED
:1005C000F1EE10FAC4BFB0EE461AB0EE452A30EE96
:1005D000420A30EE410AB5EE003A20EE030ABDEEC3
:1005E000C00AB8EE403A10EE10CAB6EE000A22EE8B
:1005F000002A32EE032ABDEEC22AB8EE423A21EEBC
:10060000000A30EE030ABDEEC00A12EE103ABEF147
:10061000050F10EE102A2DD861461C46DFE80EF0BB
:100620000412060E162000BF19466446A0F84C10AE
:10063000A0F84E40A0F85020B0BD00BF11461C46A7
:1006400010E000BF6146144602E000BF1146644658
:100650001A46A0F84C10A0F84E40A0F85020B0BDAB
:10066000194614466246A0F84C10A0F84E40A0F877
:100670005020B0BD61461C46A0F84C10A0F84E407A
:10068000A0F85020B0BD00BF2DB25D3F2DB25DBFC0
:100690002DB2DD3F00000000B7EE001AB4EE410AB3
:1006A000F1EE10FAA8BFB0EE410A9FED3D1A9FEDA2
:1006B0003D3AB5EE400AB0EE412AF1EE10FAC8BF5D
:1006C000B0EE402A22EE030ABDEEC00A10EE10CAB8
:1006D0004FEA9C23032B5DD86FF39F2CDFE803F0D8
:1006E0000246142E46F22062C0F6000252F82C3068
:1006F000036040F2FF3080EA0C0002EB800090EDD6
:10070000001A81ED001A704746F22062C0F600021E
:1007100002EB8C0393ED000AB1EE400A80ED000A73
:1007200040F2FF3080EA0C0002EB800090ED000AFE
:10073000B1EE401A81ED001A704700BF40F2FF325F
:1007400046F2206382EA0C02C0F6000303EB820249
:1007500092ED000AB1EE400A80ED000A03EB8C0036
:1007600090ED001A81ED001A704700BF40F2FF3291
:1007700046F2206382EA0C02C0F6000353F82220FE
:10078000026003EB8C0090ED000AB1EE401A81ED9F
:10079000001A70470022026081ED001A704700BF06
:1007A0000000000000F07F4540F28050C2F20000DF
:1007B00000F0DEBB704700004FF4004000F0D6BCF4
:1007C00090ED060A90ED081A90ED092A20EE010A34
:1007D0009FED0F1A20EE010A30EE020ABFEE001A5A
:1007E000B7EE002A30EE011AB4EE420AF1EE10FA2A
:1007F000B8BFB0EE401AB5EE401A31EE020AF1EE83
:1008000010FAB8BFB0EE401A80ED091A704700BF69
:100810008D7A883CEFF3108072B600BFFEE70000CF
:1008200090F85820012A04BF02207047B0B582B06A
:100830000022019200920368B3F1A04F30D140F240
:1008400008344FF6006EC5F20004CFF6FF7E54F870
:100850000E209B681A43520722D4D1F800C02268A8
:10086000BCF1000F22F4604328D04A6890F8385059
:1008700042EA45321A4322604FF60052CFF6FF7229
:10088000A25854F80E301A43D20727D1226840F6F6
:100890001F7389689A43114341EA0C011DE000BFB0
:1008A000C16D41F02001C1650121002280F858206E
:1008B00002B0BDE8B0400846704700BF4FF6005197
:1008C0002360CFF6FF71615854F80E201143C90719
:1008D00004D1216840F61F72914321600021E4E7B2
:1008E000F0B581B00022009290F85820012A03D17F
:1008F0000221084601B0F0BD0123076880F8583096
:10090000BB685B0734D4D1E900351F26C5F3012449
:1009100007EB8404226B05F01F05AE40C3F384632C
:10092000B243AB401A432263BA68BB6802F00402C8
:1009300003F00803D21840F0BC800A6807F11403E2
:100940000426C2F34064D1F808E006EAD25C53F80A
:100950002440C2F304550722AA40BEF1004F24EA06
:1009600002040BD143F80C401A6842F000430DE03A
:10097000C16D41F02001C165012178E10EFA05F257
:10098000224343F80C201A6822F000437B61D1E92E
:100990000435FC68042B5FD13A6E3A6E0B68C2F3E3
:1009A000846293FAA3F6C3F3846C6FF3DF43B6FA61
:1009B00086F5002B2C464FF6FF7E08BF6446A24208
:1009C000C0F2070E0CD13A6E22F000423A660A6875
:1009D00002EA0E03C2F3846C92FAA2F2B2FA82F532
:1009E0007A6E7A6E002BC2F384622C4608BF64468E
:1009F000A2420CD17A6E22F000427A660A6802EABC
:100A00000E03C2F3846C92FAA2F2B2FA82F5BA6EC5
:100A1000BA6E002BC2F384622C4608BF6446A24221
:100A20000CD1BA6E22F00042BA660A6802EA0E03DE
:100A3000C2F3846C92FAA2F2B2FA82F5FA6EFA6EFE
:100A4000002BC2F3846208BF6546AA4231D1FA6E18
:100A500022F00042FA662CE0062202EA940205FA2D
:100A600002FC0E6807F1600555F823404FF20002C2
:100A7000C0F2FF3206F0F846224046EA0C06324346
:100A800042F0004245F823200A698B6955F822603C
:100A900026F08076334345F822300A690B7F55F8FB
:100AA0002260012B26F0007608BF06F1007645F89B
:100AB0002260BA680D68D20750D1CA68D7F8B06012
:100AC0002B466FF3DF4326EA030C4FF6FF7602F066
:100AD0001804C0F20706E64000242E40C4F27F044A
:100AE00046EA0C06A242C7F8B06037D193B195FA36
:100AF000A5F2B2FA82F2013202F01E03092B02F0D3
:100B00001F0310D801229A4003EB430342EA035328
:100B100015E000BF012202EB956202F01E030A2BD2
:100B200002F01F03EED3012200269A4003EB430399
:100B3000CFF6206606EB03531A4342F00073C3F36B
:100B4000406607EB86068A687569C3F30453072479
:100B50009C40A5439A402A4372610D680021C8F267
:100B600008010D4200F0828040F2083CC5F2000C02
:100B7000DCF800400021CCF221318D4204F0E07E0F
:100B800004D01021C9F2C0018D4241D1B7F1A04F6C
:100B90004FF0000108BF14F4000268D1DCF8001027
:100BA00042F6635221F0E07141EA0E0141F4000186
:100BB000CCF8001040F20801C2F200010968C0F24E
:100BC0003E528909A1FB0212910901EB41010C225D
:100BD00002EB810100910099002947D00099013969
:100BE00000910099002941D00099013900910099A4
:100BF000E1B30099013900910099B9B30099013925
:100C00000091009900294FF00001E7D12FE000BFCB
:100C10000021CCF252718D4210D10021B1EB1E6F38
:100C20000CD1ACF502718F4220D0DCF8001021F01D
:100C3000E07141EA0E0141F0807115E0ACF50271FE
:100C40008F424FF0000112D00022CCF68432954240
:100C500008BF14F480020AD1DCF8001021F0E07122
:100C600041EA0E0141F48001CCF80010002100227D
:100C700080F85820084601B0F0BD0000B0B582B041
:100C800000210028019155D0C16D39B9044600F00A
:100C900009F920460021216684F8581002689168FD
:100CA00089004FF6C071C5F6FF7102D593680B40FD
:100CB00093609368DB002ED4936801F18051194052
:100CC00041F08051916040F20801C2F200010968D0
:100CD00042F663538909C0F23E53A1FB03139909FD
:100CE000022303EB410101910199A1B1019901395D
:100CF0000191019979B1019901390191019951B19C
:100D0000019901390191019929B1019901390191A3
:100D100001990029EAD19168C90011D4C16D4FF041
:100D2000010E41F01001C165016E41F00101016643
:100D300008E000BF4FF0010E704602B0B0BD00BF2A
:100D40004FF0000E9368C46D03F0040304F0100428
:100D50001B19C36D68D123F481730233C365936893
:100D6000DB071AD140F2083C4FF600544FF60063FF
:100D7000C5F2000CCFF6FF74CFF6FF735CF80440A9
:100D80005CF803302343DB0707D14368DCF80040FD
:100D900024F47C142343CCF80030437FC46BD0E9A7
:100DA00002C144EA4333194390F8243041EA0C016C
:100DB000012B41EA034306D1816A0024CFF6FE7479
:100DC00004EB41410B43C46A24B1016B04F4787411
:100DD00021430B43D16844F20704CFF6F07421405D
:100DE0001943D1601169436B21F0406119431161CE
:100DF0009168090743D490F83810037F490041EA0D
:100E00008331D36844F20204A3431943D1600369D8
:100E100014698BB144F480311161D2F8C01043F6EB
:100E2000FF74A1430B4310E043F010024FF0010E9A
:100E3000C265704602B0B0BD24F480311161D2F8B1
:100E4000C01043F6FF7321EA0303C2F8C03090F8E4
:100E50004010136901290FD140F2FD7123EA010C02
:100E6000D0E91134D0E9131543EA0C0323431943A5
:100E7000294341F0010301E023F0010313614169BB
:100E8000136B012923F00F0302D1016A01390B43CF
:100E90001363C26D012161F30102C265704602B0A5
:100EA000B0BD000070B598B0044600201790CDE9A1
:100EB0001500CDE9130002A804304021FFF78AFA9B
:100EC0002068B0F1A04F01D018B070BD4FF40040C1
:100ED00002904FF00050119002A801F071FA002822
:100EE00018BFFFF797FC41F24C00C4F20200016802
:100EF000002641F400510160016801F400510191A4
:100F00000199016841F001010160006813A900F036
:100F10000100019001980F201390032014904FF0CE
:100F20009040159600F02EF940F220551C20C2F298
:100F30000005C4F2020005214FF4807385E84300E8
:100F400005F1140080224FF4806C4FF0200E80E8F1
:100F500008502846C5E903622E6200F05FF80028B9
:100F600018BFFFF757FC6565AC6218B070BD000094
:100F7000B0B5D0E910C30268DCF8001003F01F031D
:100F80000424D2F800E09C400C4218BF1EF0040577
:100F900020D102249C400C4218BF1EF0020529D12A
:100FA000D940090714D51EF0080108BFB0BD11686B
:100FB00021F00E011160012101FA03F2CCF80420A6
:100FC000C16380F82510416B002280F8242069B9A4
:100FD000B0BD00BF1168890603D4116821F0040177
:100FE0001160CCF80440016B0029F1D0BDE8B0409D
:100FF000084700BF1168890606D4116821F00A016C
:101000001160012180F82510CCF80440C16A00224B
:10101000002980F82420E9D1DAE7000000284FF009
:10102000010100F08B802DE9F04740F2000CC4F282
:10103000020C02684FF6F8330CF5816ECBF6FD73A7
:10104000724538BF03F580634CF6CD441344CCF6AB
:10105000CC44A3FB043902F0FC03A3F10803A3FB77
:10106000043A0CF580636FF00305D0E90286076946
:101070003CBF0023C4F2020305EA9905C0E910351C
:10108000022380F82530136847F6F074A3433343F6
:1010900044693B4386692343C4693343066A234357
:1010A000334343EA080313600CF50263724538BF0B
:1010B0000CF5006372454FF0060202EB1A1238BFBE
:1010C0004FEA1A1202F01F0201FA02F440F68401FC
:1010D0001D440CF50863B8F5804FC4F20201C364E7
:1010E0008564046504D1002242602A600C6017E028
:1010F000426802F07F03013A032A4FF000022B609E
:101100000C600DD8013B01EB830747F87C2F03F0FF
:101110001F0201239340C1F8C030BC313A4601E0C0
:1011200000210023C0E9152100210122C365C1630C
:1011300080F8252080F82410BDE8F0470846704765
:10114000B0B5044600F014F9054640F20000C2F2C2
:1011500000004068611C18BF044400BF00F008F99B
:10116000401BA042FAD3B0BD7047000040F21441CA
:10117000C4F201010A68024214BF08607047FFF719
:10118000F3BF00002DE9F04F85B00E680390002EEC
:1011900000F0E480039841F2004500F12002009243
:1011A00000F13842C4F600054FEAB2270623A842F0
:1011B00008BF0523052F4FF000054FF000074FF043
:1011C000000838BF4FEAB223019302910BE000BF41
:1011D0000E6808F1010836FA08F207F1020705F176
:1011E000040500F0BB80012000FA08F216EA0209AB
:1011F000EED0D1F804A003200AF0030CACF10106F4
:10120000012E00FA07FB13D803988668D1E9024340
:1012100026EA0B06BB4033438360436823EA02029D
:10122000CAF3001303FA08F31A43426006E000BF52
:101230008C68BCF1030F08BF012C27D0039904FA76
:1012400007F3CA684FEA480E22EA0B026FEA0B0066
:101250001A43BCF1020FCA601ED16FF00301009E59
:1012600001EA580205F01C040F2156F802C001FAE9
:1012700004FA02992CEA0A0C0B69A34043EA0C0316
:10128000B350D1F804A00AF0030C05E04FF0030CB2
:101290000CFA07F2D043BE4603990CFA0EF30A6823
:1012A0001AF4403F02EA000242EA03020A6002998D
:1012B0008ED041F26003C4F202031A6840F2004E7D
:1012C00042F001021A601A68C4F2010E02F0010233
:1012D0000492049A28F003024FF6084C7244CFF6A9
:1012E000FF7C05F00C060F2052F80C3000FA06F4D3
:1012F0000198A34300FA06F6334342F80C30DEF8B7
:1013000008204B6842EA090640F20C4CDC0258BF48
:1013100022EA0906CEF80860C4F2010CDCF80020CD
:101320009C0242EA090658BF22EA0906CCF800608E
:10133000DEF804209C0342EA090658BF22EA0906A7
:10134000CEF80460DEF80020DB0342EA090658BF4D
:1013500022EA0906CEF800603AE700BF05B0BDE812
:10136000F08F00001823002A08BF2823C1507047BF
:1013700040F65420C2F200000068704790F8412007
:10138000202A03D190F84020012A01D10220704781
:10139000242280F841200268136823F001031360BF
:1013A000136823F4805313601368194311601168A4
:1013B00041F001011160202180F84110002180F8E6
:1013C000401000207047000090F84120202A03D1EF
:1013D00090F84020012A01D102207047242280F891
:1013E00041200268136823F001031360136823F49B
:1013F000706343EA01211160116841F0010111603D
:10140000202180F84110002180F840100020704712
:10141000002804BF0120704710B590F8411031B981
:10142000002180F84010044600F04AF820462421AC
:1014300080F8411090E81210C3680A68012B22F06E
:1014400001020A6024F070620A618A6822F4004294
:101450008A6003D14CF400428A6009E04CF40442F3
:10146000022B8A6004D14A6842F4006203E000BFA4
:101470004A6822F400624A604A6800F1100C42F0A7
:10148000007242F400424A60CA6822F40042CA6014
:101490009CE81C101A4342EA0422CA60026A42EA2B
:1014A0000C020A600A6842F001020A600021202250
:1014B000416480F84120016380F84210002010BD93
:1014C00010B598B0044600201790CDE91500CDE97D
:1014D000130002A804304021FEF77CFF206845F687
:1014E0000001C4F20001884202D018B010BD00BF54
:1014F0008020029002A800F063FF002818BFFFF7C9
:1015000089F941F24C04C4F20204206813A940F0A6
:1015100001002060206800F00100019001984FF464
:1015200040701390122014900020CDE91500042083
:1015300017904FF09040FFF725FEE06840F48000E0
:10154000E060E06800F480000190019818B010BDE0
:1015500040F2000040F65421C2F20000C2F2000145
:1015600040680A68104408607047000080B5032096
:1015700000F08CF80F2000F009F800281CBF0120B3
:1015800080BD00F02BF8002080BD0000B0B540F217
:101590000005C2F200056968F1B1044640F2080096
:1015A000C2F200004FF47A720068B2FBF1F1B0FBB6
:1015B000F1F001F03DFD01460F2C4FF001000AD87B
:1015C000002918BFB0BD4FF0FF302146002200F0C7
:1015D00031F800202C60B0BD0120B0BD82B041F2D6
:1015E0005800C4F20200816841F001018160816805
:1015F00001F0010101910199016841F08051016000
:10160000006800F080500090009802B000F0CEBE5C
:10161000002848BF704700F01F01012202FA01F1C3
:101620001C2202EAD0004EF20012CEF200028150DB
:101630007047000010B54EF60C5CCEF2000CDCF8E2
:101640000030C3F3022E8EF00704042C28BF0424BC
:10165000BEF103034FF0FF3E0EFA04F438BF00233F
:10166000A14399400EFA03F39A43114300F00F028D
:1016700000F160430901043A03F564436244002821
:1016800048BF02F10C03197010BD00004EF60C515A
:10169000CEF200010A684FF6FF031A4060F30A22F7
:1016A00042F0806040F0FD700860704710B501297D
:1016B000044612D009BB607A48B102F0A7FF4EF68B
:1016C0001050CEF20000016821F006010160D4F84C
:1016D000D802BDE8104003F0CBBDD4F8D80203F027
:1016E0003BFE607A002808BF10BD4EF61050CEF2C7
:1016F0000000016841F00601016010BD01EB8102AC
:10170000D0F8D83200EBC200426A184603F0BCBCE5
:1017100001EB8102D0F8D83200EBC200D0F864218E
:10172000184603F005BD0000B0B5027901F00F03C3
:10173000934284BF0120B0BD4AB24FF4A874002A7E
:1017400048BF102401F0070E021990F890420EEBEA
:101750008E034FEAD11C02EBC301012C4FF00004B1
:1017600081F801C08C7002F833E004BF0220B0BDE4
:101770000268012380F890320546104604F01AFAF8
:10178000204685F89042B0BDB0B54FFA81FC4FF4C9
:10179000A87401F0070EBCF1000F48BF10240444E8
:1017A0000EEB8E054FEAD11C04EBC5016FF3DF226F
:1017B00081F801C004F835E00A61022BCB7004BF48
:1017C00000220A7190F89022012A04BF0220B0BDC5
:1017D0000268012380F890320446104604F056F85F
:1017E000002084F89002B0BD10B501F0070C0CEB9E
:1017F0008C0100EBC10E00680EF5A8710024CEF834
:101800006421CEF86831CEF86C418EF851418EF8E3
:1018100050C104F025FA002010BD0000B0B50279D7
:1018200001F0070E96454FF0010427D84FFA81FCCE
:101830004FF4A8737246BCF1000F4CBF10230A4648
:10184000034402EB82024FEAD11C03EBC20181F890
:1018500001C090F890C28C70BCF1010F03F832E027
:1018600004BF0220B0BD0268012380F89032054613
:10187000104604F0DBF9002485F890422046B0BD04
:1018800080B501F0070C0CEB8C0100EBC10101F8F5
:1018900010CF00684FF0010C01F1140781F824C04B
:1018A0004FF0000E87E80C400B6281F801C004F095
:1018B000D7F9002080BD00002DE9F04F83B0044629
:1018C000006804F019FD01041ED4410532D441041E
:1018D00042D4810458D4C10400F1F083010500F121
:1018E0001384010600F14484810500F15184C00590
:1018F0002ED52068B0F8441021F48071A0F844106F
:1019000003B0BDE8F08F00BF2068B0F94410B1F11A
:10191000FF3F1DDC04F5A871019104F1100148F2AC
:10192000C005029104F5267140F60F774FF00009CB
:10193000009145E02068B0F8441021F48061A0F8DF
:101940004410204600F050FC94F8900201280DD17C
:1019500003B0BDE8F08F00BF2068B0F8441021F458
:101960008041A0F8441003B0BDE8F08F01200025AD
:1019700084F8900225732068002104F00FFD84F89C
:10198000905203B0BDE8F08F2068B0F8441021F405
:101990000051A0F8441003B0BDE8F08FB0F850102B
:1019A0003278084400EBC200A0F806943178204653
:1019B000FFF7A4FE2068B0F94410B1F1FF3FC7DC87
:1019C000B0F8441001F00F08B8F1070FC0D8B8F113
:1019D000000F0DD030F928104FEA480BB1F1FF3F4E
:1019E0001FFA81FA2EDD5FEA0A60E3D550E100BFFD
:1019F0000288C90660D402EA070101F500410180AE
:101A0000B0F85010227C084400EBC200B0F8020489
:101A1000616A6FF39F20E062084460622046002103
:101A2000FFF76CFE207B0028C4D0A06A0028C1D13B
:101A3000207B216840F08000C0B2A1F84C0084F8FF
:101A40000C90B7E730F81B103940803120F81B109C
:101A5000019A08EB880102EBC106317B00297BD09B
:101A6000F178022940F08680B0F850303178B269C0
:101A7000034448F2C00C40F60F755FEA4A4703EB97
:101A8000C10300F18F80B3F806746FF39F27D21B58
:101A900038BF4A46B26140F2A1805FEA4A6200F173
:101AA000AD8030F821202A4042EA0C0220F82120A3
:101AB000002F40F0A480C5E011052DD411B2B1F182
:101AC000FF3F3FF777AF0188394080310180B0F8A0
:101AD000501094F85021014401EBC201B1F80634D2
:101AE0006FF39F23002BC4F86C3100F0FF81D4F812
:101AF000641100293FF45EAFB4F8562104F000FCF5
:101B0000D4F86401D4F86C110844C4F86401204688
:101B10000021FFF7FDFD4DE7B0F8501094F850217B
:101B2000014401EBC201B1F806146FF39F210829AB
:101B3000C4F86C1140F00283B4F8562100990823D0
:101B400004F0DEFB206801883940803101802046A6
:101B500000F088FB2EE700BFB0F850103278014447
:101B600001EBC201B1F806746FF39F27A7B3716947
:101B7000F2882CE0317830F821203A402A4320F8CE
:101B8000212030F82120B0F8503000EBC101520480
:101B9000194415D4B1F806746FF39F27E7B1716942
:101BA000728914E0B3F802746FF39F27D21B38BF19
:101BB0004A46B26126D95FEA4A6232D4CFBB41E0DD
:101BC000B1F802746FF39F2737B1716932893B46D0
:101BD00004F096FB3AE000BF002737E030F8212000
:101BE00043F60F731A404CF28003A3F500535A409A
:101BF00020F821205FEA4A627FF553AF17B371697D
:101C0000728918E030F8212043F60F731A404CF225
:101C10008003A3F500535A4020F821205FEA4A626E
:101C2000CCD530F821202A4042EA0C0220F82120AD
:101C300047B1716932893B4604F062FB48F2C00546
:101C400004E000BF002748F2C00500BFD6E9060146
:101C50003944F16110B13069B8420BD9317820466E
:101C6000FFF756FD40F60F775FEA0A607FF5A2AEF8
:101C70000EE000BF7069C11920687161314603F040
:101C8000EFFF40F60F775FEA0A607FF593AE00BF83
:101C9000206808EB880130F81B20029B03EBC1068B
:101CA00002EA070101F5004120F81B10F378012B2F
:101CB00022D1317BC6F8189000293FF477AE5FEA55
:101CC0004A6173D4717801293FF468AE00297FF42A
:101CD0006DAEB0F850103278084400EBC200B0F896
:101CE00006146FF39F21A0F80614B0F8061441F40F
:101CF0000041A0F8061459E65FEACA511AD4B0F8B8
:101D000050203178024402EBC102B2F80224B369D8
:101D10006FF39F229B1A38BF4B46B3617FF647AEE5
:101D20007169F369114471619918F161314603F0E9
:101D300097FF3FE6B0F850503178B2695FEA4A67E2
:101D400000EBC1074CD407F2064C3CF805506FF38A
:101D50009F25521B38BF4A46B26171D95FEA4A4299
:101D600040F60F7707D430F821204CF280033A4038
:101D70001A4320F8212096F82410012940F08F8181
:101D8000D6E90431D6E9077229442F449A42716199
:101D9000F76180F00781002A00F02A810023336276
:101DA0004FF0000986F82430134624E171780129A8
:101DB00000F0928000297FF4F9ADB0F8501032782D
:101DC000084400EBC200B0F802146FF39F21A0F8A2
:101DD0000214B0F8021441F40041A0F80214E5E541
:101DE00007F2024C3CF805506FF39F25521B38BF99
:101DF0004A46B26148D95FEA4A4240F60F7707D5B2
:101E000030F821204CF280033A401A4320F8212078
:101E100096F82410012940F04281D6E90431D6E930
:101E2000072729442A449F427161F26180F0BE80F5
:101E30000022002F86F8242040F0BA802F46B8E018
:101E40007278012A5ED0002A48F2C00568D1B0F845
:101E500050203A44B2F802746FF39F27A2F802743C
:101E6000B2F8027447F40047A2F80274B0F85020A8
:101E70003CF802706FF39F272CF802703CF8027058
:101E800047F400474AE000BF7278012A5ED0002A7A
:101E900048F2C00568D1B0F850203CF802506FF30A
:101EA0009F252CF802503CF8025045F400452CF8D0
:101EB0000250B0F8502048F2C0053A44B2F8067417
:101EC0006FF39F27A2F80674B2F8067447F4004730
:101ED000A2F8067448E000BFB0F850103278084409
:101EE00000EBC200A0F8029460E500BF018843F651
:101EF0000F7211404CF28002A2F5805251400180D5
:101F000058E500BFB0F850204FF000093A440027D0
:101F1000A2F80274B0F8502048F2C0052CF8027004
:101F2000022B09D130F8212040F63F731A40A5F169
:101F300020035A4020F821202046FFF7DFFB5FEA0C
:101F40004A4040F60F773FF535AD22E0B0F850201B
:101F500000252CF80250B0F850204FF000093A4408
:101F6000A2F8065448F2C005022B09D130F821200E
:101F700040F63F731A40A5F120035A4020F8212073
:101F80002046FFF7BBFB5FEA4A4040F60F777FF53C
:101F900011AD206831784CF2800330F821203A40AE
:101FA0001A4388E0D21A326225E000BFFA1A1F46AF
:101FB00032627278012A15D0002A54D1B0F850202C
:101FC0003CF802306FF39F232CF80230A7B33E2F6A
:101FD0003AD807F001033CF8025003EB570345EAF7
:101FE00083233EE0B0F850202CF802703BE000BFA5
:101FF00086F824902B46727840F60F77012A15D088
:10200000002A48D1B0F850703CF807206FF39F22A7
:102010002CF80720A3B13E2B2CD803F001023CF88A
:10202000075002EB530245EA822230E0B0F850201C
:102030002CF802302FE000BF3CF802300FE000BF68
:102040003CF8072021E000BF7B09FD063CF802E0D8
:102050004FF0FF3508BF05EB57134EEA832343F4D7
:1020600000432CF802303289BBB204F09FF940F6ED
:102070000F7714E05A09DD063CF807E04FF0FF3512
:1020800008BF05EB53124EEA822242F400422CF8BC
:10209000072040F60F7772899BB204F087F9206819
:1020A000317840F63F7330F8212048F2C0051A40DD
:1020B000A5F110035A4020F821207BE42068B0F8F5
:1020C000401021F00401A0F84010B0F8401021F0B9
:1020D0000801A0F8401094F8C802012806D1002099
:1020E00084F8C80220460021FFF7E0FA204600F0FD
:1020F0008DF82068B0F8441021F48051A0F8441005
:1021000003B0BDE8F08F00BF2168B1F8400040F097
:102110000800A1F84000B1F8440020F40060A1F8E4
:102120004400B1F8400040F004022046A1F84020ED
:1021300003B0BDE8F04F00F09DB800BF018843F642
:102140000F72114005F57C6251400180018840F614
:102150003F721140A5F1300251400180018840F6E4
:102160000F7211408031018003B0BDE8F08F00BFD5
:102170002068B0F8441021F08001A0F8441094F8D1
:10218000C81299B1204603B0BDE8F04F00F072B814
:102190002168B1F8440020F400722046A1F84420E0
:1021A00003B0BDE8F04F00F045B800BFB0F84010F4
:1021B00041F00401A0F84010B0F8401041F00801CF
:1021C000A0F84010012184F8C812B0F854003C2156
:1021D00001EA900220460121C4F8CC2203B0BDE8F8
:1021E000F04FFFF763BA000010B5044640790228AB
:1021F00018BFFEF70FFBD4F8D802012103F054F802
:10220000D4F8D802BDE8104003F000B810B5044679
:10221000407A48B14EF61050CEF20000016821F02D
:102220000601016002F0F2F9D4F8D802BDE81040CE
:1022300003F01EB8D0F8D80203F024B890F890222A
:10224000012A04BF0220704710B5012280F89022B5
:10225000017302680446104604F0A0F8002084F8D8
:10226000900210BDD0F8D82200F52671104603F078
:1022700031B8000010B50446D0F8D80203F06CF86D
:10228000607A002808BF10BD4EF61050CEF2000054
:10229000016841F00601016010BD000047F2140121
:1022A000C4F2000151F8142CB0F5007F3CD0002896
:1022B00074D1C86E02F4C06220F48070B2F5806FF1
:1022C000C8662FD151F8140C012262F34A2041F85C
:1022D000140C40F20800C2F20000006832225043A1
:1022E0004DF68362C4F21B32A0FB0202900C00BFC9
:1022F0000A68520511D5421C0FD00A6852050CD548
:1023000058B10A68520508D5012806D00A68520556
:1023100003D50228A0F10400EAD10868400544BFB3
:102320000320704700207047C86E02F4C06240F47A
:102330008070B2F5806FC866F4D151F8140C012298
:1023400062F34A2041F8140C40F20800C2F2000087
:102350000068322250434DF68362C4F21B32A0FB68
:102360000202900C0A68520511D5421C0FD00A686F
:1023700052050CD558B10A68520508D5012806D077
:102380000A68520503D50228A0F10400EAD10868C2
:10239000400544BF03207047C4E700BF022060F33C
:1023A0004A2241F8142C00207047000047F2080030
:1023B000C4F20000016841F48041016070470000F0
:1023C0002DE9F04182B00446807841F2880600078A
:1023D000C4F2020602D400202FE000BF56F8300CF1
:1023E0005FEAC0080BD456F8300C40F0805046F835
:1023F000300C56F8300C00F080500190019847F2F4
:102400000007C4F20007386840F480703860FEF7B7
:10241000AFFF05463868C00500F1D680FEF7A8FF7B
:10242000401B0228F6D90320B8F1000F05D456F856
:10243000301C21F0805146F8301C2168CA0713D1A6
:102440008A0719D44A071FD40A0725D48A062BD431
:102450004A0631D40A0637D4CA053DD48A0543D486
:102460004A0549D457E000BF3268636822F003028E
:102470001A4332608A07E5D53268A36822F00C025D
:102480001A4332604A07DFD53268E36822F030022F
:102490001A4332600A07D9D53268236922F0C00294
:1024A0001A4332608A06D3D53268636922F44062E7
:1024B0001A4332604A06CDD53268A36922F44052ED
:1024C0001A4332600A06C7D53268E36922F44042F3
:1024D0001A433260CA05C1D53268236A22F44032F9
:1024E0001A4332608A05BBD53268636A22F44022FF
:1024F0001A4332604A050ED53268A36A22F44012AC
:102500001A43B3F5801F326005D156F87C2C42F493
:10251000801246F87C2C0A050ED53268E36A22F454
:1025200040021A43B3F5800F326005D156F87C2C77
:1025300042F4801246F87C2CCA040ED53268236B14
:1025400022F040721A43B3F1807F326005D156F811
:102550007C2C42F4801246F87C2C8A040ED532681A
:10256000636B22F040621A43B3F1006F326005D111
:1025700056F87C2C42F4801246F87C2C4A040ED586
:102580003268A36B22F040621A43B3F1006F3260ED
:1025900005D156F87C2C42F4801246F87C2C0904B4
:1025A0000ED53168E26B21F040511143B2F1805FEA
:1025B000316005D156F87C1C41F4803146F87C1C12
:1025C00002B0BDE8F08100BFB06810F4407010D0D8
:1025D000216C88420BD0B068B16820F4407041F49F
:1025E0008031B160B16821F48031B160B060C00762
:1025F0000CD1B068216C20F440700843B06000201A
:10260000B8F1000F3FF519AF11E700BFFEF7B0FEBC
:10261000054641F2883700BFB0688007E9D4FEF76D
:10262000A7FE401BB842F7D9FDE600002DE9F047B0
:10263000002863D042F2000AC4F2020A0446DAF823
:1026400000000D4600F00F0081420CD9DAF80000BE
:1026500020F00F002843CAF80000DAF8000000F06C
:102660000F00A8424AD1216841F20808C807C4F205
:10267000020803D1880740F1D080B5E0606858F8BF
:10268000082C022838D003283CD1920136D5D8F83E
:102690000420D8F8043042F20046C3F3031302F0DA
:1026A0000302D8F804700133C0F2F406032A04BF11
:1026B00043F20066C0F26E16B6FBF3F2D8F80430AF
:1026C000C7F306277A43C3F34163022707EB4303AB
:1026D000B2FBF3F24BF20043C0F2C4439A4259D921
:1026E000D8F8002012F0F00F49D0890752D5A16820
:1026F00000294FD143E000BF910305D40120BDE87C
:10270000F08700BF5105F9D5D8F8001001F00C0191
:1027100004293FD0D8F8001001F00C01082939D065
:10272000D8F8001001F00C010C2933D1D8F80410AE
:10273000D8F8042042F20047C2F3031201F003016B
:10274000D8F804300132C0F2F407032904BF43F281
:102750000067C0F26E17B7FBF2F1D8F80420C3F39C
:1027600006235943C2F34162022303EB4202B1FB49
:10277000F2F14BF20042C0F2C44291420AD9D8F8B9
:102780000010082262F307114FF00109C8F8001089
:1027900002E000BF4FF00009D8F8001021F003015B
:1027A0000843C8F80000FEF7E3FD064641F288370B
:1027B000D8F80000616800F00C00B0EB810F07D082
:1027C000FEF7D6FD801BB842F2D90320BDE8F087A2
:1027D0002168880708D4B9F1000F1ED0D8F800008E
:1027E00020F0F00017E000BF480705D5D8F800003A
:1027F00040F4E060C8F80000080706D5D8F80000EB
:10280000072262F30D20C8F80000D8F80000A26883
:1028100020F0F0001043C8F80000DAF8000000F0E3
:102820000F0085421BD2DAF8000020F00F00284389
:10283000CAF80000FEF79CFD064641F2883700BF4B
:10284000DAF8000000F00F00A84207D0FEF790FD74
:10285000801BB842F4D90320BDE8F08721684807FF
:1028600007D5D8F80000E26820F4E0601043C8F80B
:102870000000080708D5D8F80000216920F460504E
:1028800040EAC100C8F80000D8F8000042F2004158
:10289000C0F2F40100F00C00042808462DD0D8F84E
:1028A000000000F00C00082843F20060C0F26E1037
:1028B00023D0D8F8002002F00C020C2A1CD1D8F842
:1028C0000420D8F8043002F00302C3F30313D8F84D
:1028D00004700133032A08BF0146B1FBF3F0D8F8B6
:1028E0000410C7F30627C1F341610222784302EBCB
:1028F0004101B0FBF1F000E00020D8F8001046F2F2
:102900000662C1F30311C0F60002515C40F20802F6
:1029100001F01F0120FA01F140F20000C2F20000B4
:102920000068C2F200021160BDE8F047FEF72EBE5B
:1029300040F2080041F20801C2F20000C4F20201B4
:102940000068096846F21662C1F30221C0F600026F
:10295000515C01F01F01C8407047000040F20800C0
:1029600041F20801C2F20000C4F2020100680968E5
:1029700046F21662C1F3C221C0F60002515C01F0BA
:102980001F01C8407047000041F20C01C4F202016F
:1029900051F8040C42F20042C0F2F40200F00C00C4
:1029A0000428104608BF704751F8040C00F00C00D2
:1029B000082843F20060C0F26E1025D051F8043CA4
:1029C00003F00C030C2B1CBF0020704780B5D1F81E
:1029D00000C00B680CF0030CC3F3031E0B680EF170
:1029E000010EBCF1030F08BF02460968B2FBFEF0FE
:1029F000C3F30623C1F341610222584302EB4101B4
:102A0000B0FBF1F0BDE8804070470000002804BF33
:102A1000012070472DE9F04182B00446007841F270
:102A20000006C007C4F202061ED1207880073DD4FC
:102A30002078000764D42078400700F18780207850
:102A4000800600F1D980E569002D00F04282B0686F
:102A500000F00C000C2840F03181012D40F08E81F7
:102A6000012002B0BDE8F081B06800F00C01F06810
:102A7000082961D0032281F00C0122EA00000844F9
:102A8000B0FA80F0400957D161683068B1F5803FF5
:102A900007D0B1F5A02F40F0E38040F480203060F3
:102AA000306840F480303060E4E000BFB068F16826
:102AB00000F00C00042871D001F0030180F00C003C
:102AC00081F002010844B0FA80F0400966D1E16863
:102AD0003068002900F0E08040F480703060FEF73C
:102AE00047FC05463068400500F10A81FEF740FCCE
:102AF000401B0228F6D9032002B0BDE8F08100BFD8
:102B00006169D6F89400002900F0948040F001003B
:102B1000C6F89400FEF72CFC054600BFD6F89400DA
:102B200080073FF588AFFEF723FC401B0228F5D94C
:102B3000032002B0BDE8F081306880037FF575AFF7
:102B4000606800287FF471AF3EE000BFB06D5FEABF
:102B5000C00808D4B06D40F08050B065B06D00F092
:102B600080500190019847F20007C4F200073868CE
:102B7000C0052DD4386840F480703860FEF7F8FB4B
:102B8000054600BF3868C00522D4FEF7F1FB401BA4
:102B90000228F7D9032002B0BDE8F0813068400573
:102BA00001D5E06880B17068216920F0FE4040EAFC
:102BB0000160706040F20000C2F200000068FEF7A1
:102BC000E5FC00283FF434AF012002B0BDE8F081FD
:102BD000A168D6F89000012908D0052940F0AE8000
:102BE00040F00400C6F89000D6F8900040F00100D4
:102BF000C6F89000AEE000BFA169D6F898000029A1
:102C000000F0868040F00100C6F89800FEF7B0FBA7
:102C1000054600BFD6F8980080073FF514AFFEF7D1
:102C2000A7FB401B02284FF00300F3D902B0BDE818
:102C3000F08100BF20F00100C6F89400FEF798FB79
:102C4000054600BFD6F8940080077FF5F4AEFEF786
:102C50008FFB401B0228F5D9032002B0BDE8F081AC
:102C600020F4803030603068002920F4802030600B
:102C700000F0BE80FEF77CFB054600BF3068800395
:102C80003FF5D3AEFEF774FB401B6428F6D9032052
:102C900002B0BDE8F08100BF20F480703060FEF724
:102CA00067FB0546306840057FF5C2AEFEF760FB66
:102CB000401B02284FF00300F4D9B7E7306820F03A
:102CC00080703060FEF754FB022D05460CD100BF2A
:102CD0003068800140F1B880FEF74AFB401B0228B3
:102CE0004FF00300F4D9A1E73068800140F1EA8099
:102CF000FEF73EFB401B02284FF00300F4D995E796
:102D00007068216920F0FE4040EA016070608FE643
:102D100020F00100C6F89800FEF72AFB054600BF28
:102D2000D6F8980080077FF58EAEFEF721FB401B9A
:102D300002284FF00300F3D978E700BF20F001002C
:102D4000C6F89000D6F89000002920F00400C6F8DC
:102D500090005DD0FEF70CFB054641F2883700BFBE
:102D6000D6F89000800765D4FEF702FB401BB842FE
:102D7000F6D9032002B0BDE8F08100BFF068216AF7
:102D800000F003028A427FF41FAF626A6FF00F0304
:102D900000F0F00103EB021291427FF415AFA16A3B
:102DA00000F4FE42B2EB012F7FF40EAFE16A00F0B7
:102DB0007842B2EBC16F7FF407AF226B0023CFF6EE
:102DC000E07303EA025200F4C001A2F5001291423E
:102DD0007FF4FAAE616B4FF07E4202EA016100F0CF
:102DE000C06001F17E4188427FF4EEAE71E000BF29
:102DF000FEF7BEFA054600BF306880037FF515AECA
:102E0000FEF7B6FA401B64284FF00300F4D90DE733
:102E1000FEF7AEFA054641F2883700BFD6F89000BB
:102E2000800707D5FEF7A4FA401BB8424FF0030015
:102E3000F4D9FBE6B8F1000F3FF501AEB06D20F01C
:102E40008050B065FBE500BFF06848F20C01C0F2AD
:102E50009F1104F1200700EA010C8ECF6FF00F00E4
:102E6000D4E90C5400EB02100022CFF6E07241EAE4
:102E70000C0102EA05520843A2F500124FF07E450C
:102E800040EA032005EA0465104305F17E4540EA67
:102E9000C7602843F060306840F080703060F068B0
:102EA00040F08070F060FEF763FA044630688001FD
:102EB0000FD4FEF75DFA001B02284FF00300F5D98E
:102EC000B4E600BFF0684FF6FC71CFF6EE61084043
:102ED000F060002002B0BDE8F0810000002804BFCF
:102EE00001207047416A19B100210161142104E0F9
:102EF0004168B1F5827F02D01C2100224250B0B55A
:102F00000025856290F85D1029B980F85C50044670
:102F100000F056F82046022180F85D100168D0F8D4
:102F20000CE00B68BEF5E06F23F040030B6098BF28
:102F300001254EF40063B3F5706F4FEA053C1CBFEA
:102F400000258562D0E90154D0E9043205F4827588
:102F500004F404442C4403F002032344846902F083
:102F60000102C5691A4404F400731A4405F03803D9
:102F7000056A1A4405F08003856A1A4405F4005373
:102F80001A430A600422436A0EF4706502EA14428E
:102F9000446B45EA0C0503F010032A4304F00804CF
:102FA0001A4322434A60CA6922F40062CA610021BE
:102FB0000122016680F85D20BDE8B04008467047F8
:102FC00080B586B0006843F20002C4F2010200211D
:102FD0009042CDE90411CDE90211019102D006B071
:102FE00080BD00BF41F24C00C4F20200426942F4CD
:102FF00080524261426902F480520092009A026853
:1030000042F001020260006800F0010000900098A8
:10301000E02001900220CDE90201052004910590F5
:1030200001A94FF09040FEF7ADF806B080BD00005A
:10303000411E0020B0EB116F1CBF012070474EF203
:103040001002CEF2000251604EF62351CEF2000182
:10305000F0230B70072190601160704790F83C20BE
:10306000012A04BF02207047B0B5D1E90232D1E98C
:1030700000CE22F47C5223F4705343EA020448F257
:10308000FF73CEF6F0730EEA0302224303F50064E9
:1030900004EA0C0442EA040C0C6903F5C052224015
:1030A0004C6942EA0C02224303F5605422400C6B47
:1030B00003F5F04323401A438B6940F2000CCC69BE
:1030C000CEF6FF7C0CEA034C1443026843F2004343
:1030D000C4F201039A4244EA0C0305D042F60044CC
:1030E000C4F20104A24217D14FF6FF74CDF60F448B
:1030F00003EA040ED1E9084CD1E90A310025CDF6E6
:10310000F04505EA035343EA0E0324F008552B4328
:103110002CF000552B430B430021536480F83C10E6
:103120000020B0BD90F83C20012A4FF002024AD0A6
:1031300070B580F83D20026843F2004C54689368F3
:10314000C4F2010C42F6004E6245C4F2010E01D0F9
:10315000724503D14D6824F470042C434FF68F75EB
:10316000CFF6FF550E682C4042F6FF35C4F201053C
:103170003443AA4254600FDCB2F1804F16D040F2C3
:103180000046C4F20006B24210D040F60006C4F277
:103190000006B2420AD00EE0724507D044F20006A3
:1031A000C4F20106B24201D0624504D1896823F01D
:1031B0008003194391600121002280F83D1080F8BE
:1031C0003C20BDE87040104670470000C1B10429A2
:1031D00008D0082914BF47224622825C012A05D064
:1031E00016E000BF4522825C012A11D10222082983
:1031F00010D0042914BF80F8472080F845200BE048
:1032000090F84420012A03D1022280F8442003E0F0
:103210000120704780F84620026801F00F00042169
:10322000136A01FA00F023EA00011162116A0843EF
:103230001062506C42F6FF31C4F2010140F40040CC
:103240008A42506410DCB2F1804F1FD040F200403F
:10325000C4F20000824219D040F60000C4F200001F
:10326000824213D01FE000BF42F60040C4F20100CA
:1032700082420BD044F20000C4F20100824205D029
:1032800043F20040C4F2010082420CD19068072151
:10329000C0F20101014006294FF00000B9D0B1F59C
:1032A000803F08BF7047106840F0010010600020A8
:1032B00070470000002804BF0120704710B5044685
:1032C00090F83D0028B9002084F83C00204600F02A
:1032D00023F8022084F83D002068211D01F0D8F970
:1032E000012084F8480084F83E0084F83F0084F808
:1032F000400084F8410084F8420084F8430084F8D8
:10330000440084F8450084F8460084F8470084F8B7
:103310003D00002010BD0000006842F60041C4F2EC
:103320000101884218BF704781B041F26000C4F2C9
:103330000200016841F400610160006800F400606F
:103340000090009801B0704790F83C20012A4FF09F
:10335000020200F0C08010B580F83D200468882289
:10336000A368CFF6CE721A40A2600B686F2B11DDF6
:103370001F22C0F21002934244DCB3F5005F80F2DA
:103380008780702B00F0D880B3F5805F00F09A80C2
:10339000F2E000BF2F2B41DD4F2B47DC302B00F03C
:1033A0008780402B40F0E880D1F804C0D1F80CE0D1
:1033B000236A216A21F00102A4F18041A1F596312E
:1033C0004FEAB1210729226209D8012202FA01F14C
:1033D00011F0E50F1EBF216A21F004012162A169ED
:1033E00023F00A0221F0F00141EA0E1142EA0C0238
:1033F000A1612262A1684FF68872CFF6CF721140A8
:1034000047315EE03F21C0F210018B4246DC2021B3
:10341000C0F210018B424BD0302145E0002B47D049
:10342000102B45D0202B43D0A6E000BF502B55D009
:10343000602B40F0A180D1F804C0D1F80CE0236AE1
:10344000226A43F20041C4F201018C4222F01001D1
:10345000216205D042F60041C4F201018C4203D141
:10346000216A21F040012162A16923F0A00221F428
:10347000704141EA0E3142EA0C12A1612262A16858
:103480004FF68872CFF6CF721140673119E000BF56
:1034900062D0B3F1101F0BD06EE000BF4021C0F22C
:1034A00010018B4204D07021C0F210018B4263D115
:1034B000A1684FF68872CFF6CF721140194341F0E0
:1034C0000701A1600022012180F83D10002180F851
:1034D0003C10BDE810401046704700BFD1F804C052
:1034E000D1F80CE0236A216A21F00102A4F18041A5
:1034F000A1F596314FEAB1210729226209D80122AC
:1035000002FA01F111F0E50F1EBF216A21F004015A
:103510002162A16923F00A0221F0F00141EA0E11B3
:1035200042EA0C02A1612262A1684FF68872CFF6CE
:10353000CF7211405731C4E7D1E901C3C968A2680D
:1035400043EA0C0322F47F4243EA01211143A160C4
:10355000A16841F07701B4E7D1E901C3C968A26865
:1035600043EA0C0322F47F4243EA01211143A160A4
:10357000A16841F48041A4E70122A4E72DE9F041CC
:1035800086B0006842F60041C4F20101002688427C
:10359000CDE90466CDE90266019603D006B0BDE828
:1035A000F08100BF41F24C00C4F20200016840F615
:1035B000000441F0040101600168C4F6000401F058
:1035C00004010091009901680DF1040841F0020125
:1035D00001600068022700F00200009000984FF49C
:1035E000005001900420059020464146CDE9027626
:1035F0000496FDF7C7FD0720CDE901070325204606
:1036000041460396CDE90457FDF7BCFD0620059021
:10361000A4F580604146CDE90157CDE90365FDF78A
:10362000B1FD06B0BDE8F08190F83C30012B04BF3D
:10363000022070474FEAB202052A00F2D9812DE933
:10364000F041DFE812F0070039019100E500550074
:103650008D0100BF03681D6A1A6AA3F1804622F03B
:1036600001021A621A46D3F804C052F818EF8F68A4
:10367000A6F59636D1F8008025F002054FEAB62669
:10368000072E45EA07050CD80127B74017F0E50FCC
:1036900007D01F6A25F0080527F004071F62CF68CE
:1036A0003D43072E0CD8012707FA06F616F0E50F62
:1036B0001FBFD1E905672CF44074264346EA070C86
:1036C0004FF68C74CFF6FE740EEA040747EA08073B
:1036D000C3F804C09F614F6809695F631D629F69F9
:1036E00047F008079F619F6927F004079F6174E115
:1036F0000368D3F820C01A6AA3F1804722F480320D
:103700001A621A46A7F596375D6852F8508FD1F8BD
:1037100000E08E684FEAB727072F09D80124BC4084
:1037200014F0E50F1EBF4C6925F4803545EA0425E9
:103730002CF4003747EA06474FF68C76CFF6FE7634
:10374000033606EA080646EA0E065D601E654E6808
:1037500009699E641F621F6D47F008071F651F6D92
:1037600027F004071F6538E1036843F200461D6A2D
:103770001A6AC4F2010622F480721A621A46D3F859
:1037800004C052F81C8FB3428E68D1F800E025F4D3
:10379000007545EA062505D042F60046C4F201064A
:1037A000B34208D11E6A25F4006526F480661E62C5
:1037B000CE6845EA0625A3F18046A6F596364FEA7F
:1037C000B626072E0CD8012707FA06F616F0E50FE5
:1037D0001FBFD1E905672CF44054374344EA071C66
:1037E0004FF68C74CFF6FE7404EA080444EA0E0720
:1037F000C3F804C0DF614F680969DF631D62DF69D8
:1038000047F00807DF61DF6927F00407DF61E4E0C4
:10381000036843F200461D6A1A6AC4F2010622F4E4
:1038200080521A621A46D3F804C052F81C8FB34271
:103830008E68D1F800E025F4005545EA063505D03C
:1038400042F60046C4F20106B34208D11E6A25F4CE
:10385000004526F480461E62CE6845EA0635A3F18F
:103860008046A6F596364FEAB626072E0CD80127D5
:1038700007FA06F616F0E50F1FBFD1E905672CF42D
:103880004044374344EA871C48F6FF44CFF6FF64C0
:1038900004EA080444EA0E27C3F804C0DF614F6855
:1038A00009691F641D62DF6947F40067DF61DF6932
:1038B00027F48067DF618FE0036843F200461D6AEA
:1038C0001A6AC4F2010622F010021A621A46D3F8EC
:1038D00004C052F8188FB3428E68D1F800E025F08A
:1038E000200545EA061505D042F60046C4F2010659
:1038F000B34208D11E6A25F0800526F040061E62FC
:10390000CE6845EA0615A3F18046A6F596364FEA3D
:10391000B626072E0CD8012707FA06F616F0E50F93
:103920001FBFD1E905672CF44064374344EA870C94
:1039300048F6FF44CFF6FF6404EA080444EA0E2781
:10394000C3F804C09F614F6809699F631D629F6946
:1039500047F400679F619F6927F480679F613BE0A0
:103960000368D3F820C01A6AA3F1804722F48012BA
:103970001A621A46A7F596375D6852F8508FD1F84B
:1039800000E08E684FEAB727072F09D80124BC4012
:1039900014F0E50F1EBF4C6925F4802545EA842507
:1039A0002CF4001747EA065748F6FF46CFF6FF66A5
:1039B00006F5407606EA080646EA0E265D601E65B4
:1039C0004E680969DE641F621F6D47F400671F655A
:1039D0001F6D27F480671F65090213681943116082
:1039E0000021BDE8F041002280F83C2008467047E5
:1039F0000121002280F83C2008467047002804BFBF
:103A00000120704710B5044690F83D0028B9002009
:103A100084F83C00204600F023F8022084F83D00A2
:103A20002068211D00F034FE012084F8480084F84D
:103A30003E0084F83F0084F8400084F8410084F898
:103A4000420084F8430084F8440084F8450084F878
:103A5000460084F8470084F83D00002010BD0000B7
:103A60007047000080B5D9B10B1F4FEAB30E432257
:103A70004FF03F0CBEF1040F38BF0CEBB302825C79
:103A8000012A1CBF012080BDBEF1030F1ED8DFE854
:103A90000EF00319111500BF022280F83F2018E034
:103AA00090F83E20012A1CBF012080BD022280F830
:103AB0003E200EE0022280F841200AE0022280F837
:103AC000422006E0022280F8402002E0022280F834
:103AD0004320026801F01F010120136A00FA01F17E
:103AE0008B431362136A0B43A2F18041A1F5963117
:103AF0004FEAB1210629136244D8884010F0650FBF
:103B000040D0506C42F6FF31C4F2010140F4004055
:103B10008A42506410DCB2F1804F1FD040F2004066
:103B2000C4F20000824219D040F60000C4F2000046
:103B3000824213D01FE000BF42F60040C4F20100F1
:103B400082420BD044F20000C4F20100824205D050
:103B500043F20040C4F2010082420CD19068072178
:103B6000C0F20101014006294FF0000008D0B1F574
:103B7000803F08BF80BD106840F001001060002049
:103B800080BD00BF42F6FF30C4F201008242C2DDB8
:103B900043F6FF70C4F20100824207DC42F60040A7
:103BA000C4F201008242D3D1D8E700BF44F2000042
:103BB000C4F201008242D1D044F60000C4F20100F8
:103BC000824202BF506C40F400405064D3E70000D2
:103BD00090F88410012904BF022070472421C0F806
:103BE000881001680A680B6822F0005223F0010374
:103BF0000B60002343660A602021C0F8881080F81B
:103C0000843000207047000090F88420012A04BF0F
:103C100002207047B0B52422C0F888200268D0F88E
:103C200064E0D2F800C01368BEF1000F23F0010376
:103C30001360936823F0606341EA0301916019D037
:103C40009368916847F2486E490FC0F6000E47F23C
:103C500050651EF80140C0F60005695CC3F342637D
:103C6000E400B4FBF1F11EF80340EB5CE500B5FBAA
:103C7000F3F301E001210123A0F86A102021A0F84C
:103C80006830C2F800C0C0F88810002180F88410A5
:103C90000020B0BD90F88420012A04BF02207047A4
:103CA000B0B52422C0F888200268D0F864E0D2F8C9
:103CB00000C01368BEF1000F23F001031360936886
:103CC00023F0604341EA0301916019D09368916841
:103CD00047F2486E490FC0F6000E47F250651EF8D5
:103CE0000140C0F60005695CC3F34263E400B4FB25
:103CF000F1F11EF80340EB5CE500B5FBF3F301E0E6
:103D000001210123A0F86A102021A0F86830C2F830
:103D100000C0C0F88810002180F884100020B0BDD9
:103D200010B5D0B10446D0F8880028B9002084F836
:103D30008400204600F026F82420C4F8880020687B
:103D4000A16A026822F00102026011B1204600F06F
:103D500037FD204600F05EFE10B1012010BD00BF0F
:103D60002168486820F490404860886820F02A0064
:103D70008860086840F0010220460A60BDE81040F3
:103D800000F092BD70B598B0044602A80025083036
:103D90003C211795CDE91555CDE91355FCF71AFBD4
:103DA000206843F60001C4F20101884202D018B035
:103DB00070BD00BF0120CDE9020502A8FEF700FB9F
:103DC000002818BFFCF726FD41F24C00C4F20200A7
:103DD0004169002641F480414161416901F480411B
:103DE00001910199016841F004010160006813A983
:103DF00000F00400019001983020139002201490EC
:103E00000720179040F60000C4F60000CDE91566C3
:103E1000FDF7B8F940F280550820C2F20005C4F25F
:103E200002001921102280234FF0200C85E8470062
:103E30002846C5E90436C5E9066C2E62FDF7EEF8A2
:103E4000002818BFFCF7E6FCE567AC6218B070BD4F
:103E5000FEE7000090ED050A90ED061A90ED0E2A9F
:103E600090ED0D3A22EE004A23EE015A23EE000AAD
:103E700022EE011A35EE444A31EE000A80ED0F4A77
:103E800080ED100A7047000010B58CB040F2B440CD
:103E9000C2F200004FF0A04C4FF440320421C0E9C0
:103EA00000C2816101624FF4A4614FF4806200247A
:103EB0000123C0E90B124FF480510B94CDE9094462
:103EC000CDE90744CDE90544CDE90344CDE90144FA
:103ED000C0E90244C0E90443848380F8244080F8A8
:103EE0003830C16380F84040FCF7C8FE002818BF96
:103EF000FCF790FC40F2B440C2F2000009A909941A
:103F0000FCF78EFC002818BFFCF784FC0220C0F2EE
:103F10003040019006207F2102900020049104216E
:103F20000390CDE9051040F2B440C2F2000001A9AF
:103F3000FCF7D6FC002818BFFCF76CFC0420C0F688
:103F4000600001900C20029040F2B440C2F20000E8
:103F500001A9FCF7C5FC002818BFFCF75BFC082092
:103F6000C0F6904001901220029040F2B440C2F29C
:103F7000000001A9FCF7B4FC002818BFFCF74AFCBC
:103F80001020C1F2C00001901820029040F2B4400D
:103F9000C2F2000001A9FCF7A3FC002818BFFCF73F
:103FA00039FC0CB010BD000080B582B041F2480071
:103FB000C4F202000168002241F0040101600168BE
:103FC00001F0040101910199016841F001010160D2
:103FD0000068002100F00100009000980B20FDF720
:103FE00029FB0B2002B0BDE88040FDF711BB0000AB
:103FF0002DE9F04F87B0002441F24C000694CDE942
:104000000444CDE90244C4F20200016840F20048D1
:1040100041F0040101600168C4F6000801F00401E8
:10402000019101990168002241F0200101600168BD
:1040300001F0200101910199016841F00101016045
:10404000016801F0010101910199016841F002014B
:104050000160016801F0020101910199016841F0DC
:1040600008010160006844F2500100F0080001906E
:1040700001984046FDF776F908F5806738464FF419
:10408000D0510022FDF76EF908F500694846042179
:1040900001224FF0040A0126FDF764F94FF4804035
:1040A00002ADCDE902064FF0020B40462946CDE9AC
:1040B00004B4FDF767F84FF4004002904FF4881005
:1040C000CDE9030B40462946FDF75CF84FF400703C
:1040D000CDE9020638462946CDE90464FDF752F8D9
:1040E0004FF4C050CDE9020638462946CDE90444D4
:1040F000FDF748F848462946CDE902A6CDE9046413
:10410000FDF740F81020CDE9020640462946CDE9EA
:104110000464FDF737F84020CDE902064046294601
:10412000CDE90444FDF72EF8282000210022FDF7F8
:1041300081FA2820FDF76CFA07B0BDE8F08F000087
:1041400080B540F2E05045F60001C2F20000C4F232
:10415000000148F2C2520023C4F2B2024FF0010C37
:1041600080E80E10C0E90433C0E906330362FDF7AE
:104170004FF9002818BFFCF74DFB40F2E050C2F2A7
:1041800000000021FDF7FAF8002818BFFCF742FBF9
:1041900040F2E050C2F200000021FDF715F90028BE
:1041A00008BF80BDBDE88040FCF734BB70B540F669
:1041B000101043F20001C2F20000C4F201014FF4FA
:1041C000827200234FF4E06C4FF0020E012480E86D
:1041D0000E5000F114014FF40075182670C107212C
:1041E000C0E90833C0E90A31C0E90C33FEF776FEB6
:1041F000002808BF70BDBDE87040FCF70BBB000095
:1042000010B59CB0002401A834211B94CDE91944B9
:10421000CDE91644CDE91444CDE91244CDE910446A
:10422000CDE90E44FCF7D6F840F6741042F6004192
:10423000C2F20000C4F201012022C0E9001400F122
:10424000080141F299031CC1C0E90544FFF732F8A7
:10425000002818BFFCF7DEFA4FF48050189040F6A3
:104260007410C2F2000018A9FFF76EF8002818BFFA
:10427000FCF7D0FA40F67410C2F20000FFF7BEFB64
:10428000002818BFFCF7C6FA2020159040F67410DD
:104290000024C2F2000015A9CDE91644FEF742FF42
:1042A000002818BFFCF7B6FA60200E9040F64D00CB
:1042B000CDE90F0440F67410C2F200000EA90022EE
:1042C000CDE91144CDE91344FFF7AEF9002818BF3A
:1042D000FCF7A0FA40F67410C2F200000EA9042206
:1042E000FFF7A2F9002818BFFCF794FA40F6741003
:1042F0000024C2F200000EA908220F94FFF794F9DF
:10430000002818BFFCF786FA4FF40050CDE90604E8
:104310004FF00070CDE90A0440F67410C2F20000BC
:1043200001A90594CDE90344CDE90144CDE9084450
:10433000CDE90C44FEF792FE002818BFFCF76AFA9C
:1043400040F67410C2F20000FFF718F91CB010BD5F
:1043500080B540F6C01043F60001C2F20000C4F27E
:10436000010100234FF00C0C4FF4E13280E80E0005
:10437000C0E90333C0E905C3C0E90733C0E9093325
:10438000FFF7CEFC002818BFFCF744FA40F6C01037
:10439000C2F200000021FFF77DFC002818BFFCF7E7
:1043A00039FA40F6C010C2F200000021FFF72CFCE1
:1043B000002818BFFCF72EFA40F6C010C2F2000029
:1043C000FFF706FC002808BF80BDBDE88040FCF771
:1043D00021BA0000FEE7000010B540F27000C2F202
:1043E000000003228270002240F28963C3F68442F7
:1043F000C3F69343C0E9283243F6FF734364A0F841
:104400004632072380F8193280F8E4310223C3F6DC
:10441000FF73C0F8EA314DF20A73C3F6A343C0F844
:10442000083247F60043C4F6121342F23414C0F8BF
:10443000FC3149F69A13C1F67864C3F61973C0F8D3
:10444000F840002443620023C4F29654C4F260137F
:1044500040F20172C0F82442C0F86C3200230024FC
:1044600082874BF21772C4F29643C4F2C824C3F693
:104470005102C0E9CB344DF20A734FF0010E426590
:10448000C0F81C22C0F86022C0F80423C3F62343FE
:10449000C0F84C234CF6CD42002180F864E0C0F80F
:1044A000443380F8A0E280F848E340F2000E002494
:1044B000C0F88C33C3F64C5200234CF6CD4CC4F2FA
:1044C000614EC4F2A014C4F24003C0E9E62144F2F4
:1044D0000002C3F6CC5CC0E9DDE4C0F8A033C4F24E
:1044E000835248F20003002400F5767EC0E937CC01
:1044F000C0F898C243F2333CC4F23B53C4F2FA44CE
:104500008EE81C00C0F8F4230022C3F6B37C00F54B
:104510007A7EC4F2A002C0F8BCC28EE81A00C0F8CD
:104520003824C0F83CC44CF6CD4C41F26F23002433
:104530000022C3F64C6CC3F60333C4F22014CCF251
:104540002012C0E941C3C0E94B42C0E94FC3C0E9F2
:10455000594241F26F224DF20A7C43F2BD74C3F618
:104560008322C3F6A33CC3F206644FF07C5E018055
:10457000A0F89013A0F89413A0F8A413C0E9F111C7
:1045800080F8CC13C0F8CE13C0E9EA11C0E9EC11F1
:10459000C0F8B813C0F80014C0F80414C0F8081428
:1045A000C0F80C14C0F81014C0F81414C0F8181493
:1045B000A0F81C1480F82C14C0F82014C0F824149F
:1045C000C0F82814C0E95D2400240023C0E969C2B2
:1045D000C0E96BE1C0F8B4114CF200014CF20002EA
:1045E000C4F2C004CCF2C003C4F25A61CCF25A62E5
:1045F000C0E96743C0E9751210BD0000FEE7000086
:104600007047000070470000FCF7A2BFB0B594B03F
:1046100000240020CDE90A44CDE90844FDF73EFE20
:10462000212006904FF480300790012006210C9045
:1046300002200F9155210D900325CDE91010CDE9F1
:10464000120006A80E95FEF7E1F928B1EFF31080ED
:1046500072B600BFFEE700BF0F20CDE9010501A83B
:104660000421CDE903440594FDF7E0FF20B1EFF309
:10467000108072B6FEE700BF14B0B0BD4EF6885091
:10468000CEF20000016841F4700101607047000043
:1046900080B540F2FF7ED0F800C0C4F2000E704535
:1046A00024DD40F60002C4F20002904227D043F21B
:1046B0000042C4F20102904221D042F60042C4F20C
:1046C000010290421BD043F2FF32C4F20102904239
:1046D00020DC704532DCB0F1804F49D040F200421E
:1046E000C4F20002904243D047E000BFB0F1804FD7
:1046F00005D040F20042C4F200029042E3D14A6881
:104700002CF0700342EA030C43F2FF32C4F20102C0
:104710009042DEDD44F2FF32C4F2010290421BDC23
:1047200043F20042C4F20102904221D044F200025E
:10473000C4F2010290421BD01FE000BF40F600020D
:10474000C4F20002904213D042F60042C4F20102C9
:1047500090420DD011E000BF44F60002C4F2010205
:10476000904205D044F20042C4F20102904204D1CA
:10477000CA682CF4407342EA030C8A680B68D1F8CB
:1047800014E0C262A0F18042A2F596324FEAB22252
:10479000072A836207D8012303FA02F212F0E50F19
:1047A0001CBF0969016302682CF0800142F0040219
:1047B00041EA0E01026001224261016080BD0000F9
:1047C000816A0A070CD4CA0715D18A071ED44A0782
:1047D00027D4CA0630D48A0639D44A0642D457E0D0
:1047E0000268D0F838C0536823F4004343EA0C034E
:1047F0005360CA07E9D00268D0F82CC0536823F48C
:10480000003343EA0C0353608A07E0D50268D0F80E
:1048100030C0536823F4803343EA0C0353604A07E3
:10482000D7D50268D0F834C0536823F4802343EA14
:104830000C035360CA06CED50268D0F83CC093681A
:1048400023F4805343EA0C0393608A06C5D50268BB
:10485000D0F840C0936823F4005343EA0C039360FC
:104860004A0615D5D0F800C0436CDCF80420B3F537
:10487000801F22F4801242EA0302CCF8042007D100
:10488000DCF80420836C22F4C0021A43CCF8042024
:10489000090658BF70470168C06C4A6822F40022BC
:1048A0001043486070470000B0B582B00446002055
:1048B000C4F89000FCF75CFD216805460A68120701
:1048C00037D56FF07E4C20464FF4001100222B4666
:1048D000CDF800C000F0EAF950B300BF206850E8FE
:1048E000000F216820F0800041E80002DAB1206862
:1048F00050E8000F216820F0800041E8000292B1EA
:10490000206850E8000F216820F0800041E8000294
:104910004AB1206850E8000F216820F0800041E88B
:104920000002002ADAD10320202188226BE000BF98
:104930002168086840075DD56FF07E4C20464FF433
:10494000800100222B46CDF800C000F0AFF900280E
:1049500050D000BF206850E8000F216820F490700C
:1049600041E80002BAB3206850E8000F216820F443
:10497000907041E8000272B3206850E8000F21688F
:1049800020F4907041E800022AB3206850E8000F3C
:10499000216820F4907041E80002002ADAD11AE080
:1049A000206850E8020F216820F0010041E802026F
:1049B000DAB1206850E8020F216820F0010041E8D8
:1049C000020292B1206850E8020F216820F0010035
:1049D00041E802024AB1206850E8020F216820F045
:1049E000010041E80202002ADAD1032020218C22B2
:1049F00009E000BF2020C4F88800C4F88C00002122
:104A000070220020E166A150002184F8841002B0D9
:104A1000B0BD000070B5054605F108041ECC006865
:104A2000194341EA0403EE69046846F6F311CCF633
:104A3000FF712140194331430160416848F2000C85
:104A400021F4405111434160AA69C4F2000C604551
:104A50001CBF296A0A4381684FF2FF43C1F2FF136A
:104A6000194011438160C16AD5F824E021F00F019B
:104A700041EA0E01C16244F6FF31C4F200018842EE
:104A80004FF0100314DD44F60041C4F200018842E7
:104A900022D0604528D043F60001C4F201018842CB
:104AA00038D141F28801C4F202010B687BA22DE0EB
:104AB00044F20041C4F2000188421DD044F60001D6
:104AC000C4F20001884225D141F28801C4F20201FA
:104AD00009680B0916E000BF41F28801C4F2020127
:104AE00009688B090EE000BF41F28801C4F202019F
:104AF00009688B0A06E000BF41F28801C4F2020196
:104B000009688B0847F23862C0F6000203F003011F
:104B100052F82130604542F20040C0F2F40015D056
:104B2000B6F5004F22D1082B4FF0010100F2AD8005
:104B3000DFE803F0065C74AB64ABABAB720000BFA4
:104B4000FDF7F6FE002840F05D809AE0082B4FF05C
:104B5000010100F29A80DFE803F0059825981B9880
:104B600098982300FDF7E4FEB0B98AE0082B4FF0D7
:104B7000010100F28A80DFE803F0053D6F88498873
:104B800088886D00FDF7D4FE002842D179E000BF8F
:104B9000FDF7FAFE002874D0D5F824E002E000BF4B
:104BA0004FF4004047F22061C0F6000131F81E10BA
:104BB0006A68B0FBF1F002EB420188424FF001015C
:104BC00063D31303984260D8010E000210EB520029
:104BD00041F100010023FBF785FB4FF60052A0F5E1
:104BE0004071C0F20F02914249D34DE0FDF7B6FE8D
:104BF00040B946E0FDF7B2FE58B942E0FDF7C4FE09
:104C000000283ED0D5F824E008E000BFFDF7BCFE48
:104C1000B8B3D5F824E01FE04FF4004047F220611C
:104C2000C0F6000131F81E106A68B0FBF1F05108BF
:104C300001EB4000B0FBF2F04FF6EF72A0F1100173
:104C4000914221D84FF6F0710140C0F34200084470
:104C500015E000BF4FF4004047F22061C0F60001AC
:104C600031F81E104FF6EF72B0FBF1F0696800EBFF
:104C70005100B0FBF1F0A0F11001914204D8296875
:104C8000C860002101E000BF01214FF00110A866BB
:104C9000002208466A67AA6770BD00BF01000000D5
:104CA0000400000002000000080000002DE9F041AF
:104CB000804600681546C2690E461140891BB1FA4C
:104CC00081F149098D4223D1069C2CB3611C29D165
:104CD000C1693140891BB1FA81F149098D4217D16F
:104CE000C1693140891BB1FA81F149098D420FD167
:104CF000C1693140891BB1FA81F149098D4207D15F
:104D0000C1693140891BB1FA81F149098D42DFD077
:104D10000020BDE8F08100BFFCF72AFB0320BDE8BE
:104D2000F08100BF1F4607E0C0693040801BB0FA29
:104D300080F040098542EBD1FCF71AFBC01BA04272
:104D400000F2AE80D8F8000001684907ECD5402E8B
:104D5000EAD0802EE8D0C169090700F1A580C169B9
:104D60000905E1D54FF400610162D8F8000050E870
:104D7000000FD8F8001020F4907041E800020AB348
:104D8000D8F8000050E8000FD8F8001020F4907018
:104D900041E80002B2B1D8F8000050E8000FD8F89E
:104DA000001020F4907041E800025AB1D8F80000D9
:104DB00050E8000FD8F8001020F4907041E800028D
:104DC000002AD2D14FF6FE70CEF6FF70D8F8001050
:104DD00051E8021FD8F80020014042E80213F3B165
:104DE000D8F8001051E8021FD8F80020014042E82E
:104DF0000213A3B1D8F8001051E8021FD8F8002020
:104E0000014042E8021353B1D8F8001051E8021FE4
:104E1000D8F80020014042E80213002BD6D1D8F880
:104E20006C0001282CD1D8F8000050E8000FD8F809
:104E3000001020F0100041E800020AB3D8F800008A
:104E400050E8000FD8F8001020F0100041E80002F0
:104E5000B2B1D8F8000050E8000FD8F8001020F0E8
:104E6000100041E800025AB1D8F8000050E8000FE5
:104E7000D8F8001020F0100041E80002002AD2D13A
:104E800020200021C8F88C00C8F86C10C8F87410F5
:104E9000C8F89000032088F88410BDE8F08100BFB6
:104EA0000320BDE8F08100BF08210162D8F80000AE
:104EB00050E8000FD8F8001020F4907041E800028C
:104EC0000AB3D8F8000050E8000FD8F8001020F41A
:104ED000907041E80002B2B1D8F8000050E8000F2D
:104EE000D8F8001020F4907041E800025AB1D8F8C8
:104EF000000050E8000FD8F8001020F4907041E84E
:104F00000002002AD2D14FF6FE70CEF6FF70D8F81C
:104F1000001051E8021FD8F80020014042E80213B7
:104F2000F3B1D8F8001051E8021FD8F80020014072
:104F300042E80213A3B1D8F8001051E8021FD8F8D4
:104F40000020014042E8021353B1D8F8001051E8A4
:104F5000021FD8F80020014042E80213002BD6D1EE
:104F6000D8F86C0001282CD1D8F8000050E8000FC8
:104F7000D8F8001020F0100041E800020AB3D8F879
:104F8000000050E8000FD8F8001020F0100041E8B1
:104F90000002B2B1D8F8000050E8000FD8F80010B5
:104FA00020F0100041E800025AB1D8F8000050E8A3
:104FB000000FD8F8001020F0100041E80002002A8D
:104FC000D2D12020C8F88C0000200821C8F86C003D
:104FD000C8F87400C8F8901088F884000120BDE873
:104FE000F0810000D0F8B82222B180B55268904715
:104FF000BDE880400020704780B513460A46002176
:1050000000F0F2F8002080BD80B513460A4600216A
:1050100000F0ACF9002080BD80B50521C0F89412E5
:1050200000210022002300F0DFF8002080BD0000F6
:1050300080B513460A460221C0F894120021C0E947
:10504000063300F093F9002080BD000080B50421F4
:10505000C0F8941200210022002300F087F90020FC
:1050600080BD000080B5D0F8C402FCF75DFB40F2C3
:105070000032C100C0F2013222FA01F1032888BFD8
:105080000321C8B280BD0000B0B569B190F89C2280
:10509000032A4AD1D0F8B8225269002A45D0904755
:1050A000002808BF0020B0BDD0F89412022935D1E5
:1050B000D0E907318B420DD95B1A11461A46C361FC
:1050C0000446FFF7A1FF204600210022002300F044
:1050D0008BF822E00FD182698A420CD3D0F8981263
:1050E0008A4208D20021002204460025FFF78CFFE7
:1050F000C4F89852E7E790F89C12032906D1D0F83B
:10510000B812C96811B10446884720468021044678
:1051100000F010F92046FFF77FFF204690F8A0121C
:10512000012904BF002180F8A0120020B0BD0000BA
:1051300010B561B190F89C22032A1AD1D0F8B82298
:105140009269B2B19047002808BF002010BDD0F886
:10515000941203290DD1D0E9571399420BD9C91ADA
:10516000C0F85C11994238BF0B4611461A46FFF74A
:1051700043FF002010BD90F89C12032906D1D0F8FF
:10518000B812096911B1044688472046FFF75EFF4F
:10519000002010BDD0F8C40201F07F034AB203EB37
:1051A000830301EB810100EBC30300EBC10000F5B9
:1051B000A970002A48BF03F1120000787047000070
:1051C00080B59446D0F8C4021A466346FCF7DCFA70
:1051D00040F20032C100C0F2013222FA01F103288C
:1051E00088BF0321C8B280BD80B5D0F8C402FCF7E7
:1051F000FBFA40F20032C100C0F2013222FA01F1A2
:10520000032888BF0321C8B280BD0000F0B581B07B
:1052100004460120002184F89C02C4F89412D4F8BA
:10522000B8026160C4F8A412E8B1D4F8BC1221B18C
:10523000426812B1204600219047204600210022FA
:10524000402300254026FFF7BBFF01272046802191
:1052500000224023A4F86471C4F86061FFF7B0FF36
:10526000A784266200E00325284601B0F0BD0000B7
:1052700090F89C12042904BF90F89D1280F89C12AB
:1052800000207047D0F8B812002904BF03207047EF
:1052900090F89C22032A05D1C96919B180B58847C5
:1052A000002080BD00207047024600201174704726
:1052B00080B5D0F8C402FCF7C1FF40F20032C10053
:1052C000C0F2013222FA01F1032888BF0321C8B2DB
:1052D00080BD0000B0B500F2AA240546204600F0CB
:1052E00057F80121C5F8941295F8AA12B5F8B03212
:1052F00001F01F02022AC5F898320ED0012A06D00A
:105300008AB928462146BDE8B04000F055B8284685
:105310002146BDE8B04000F08DBA28462146BDE8E0
:10532000B04000F0EDB901F080012846BDE8B04082
:10533000AFF3008080B5D0F8C402FCF76FFA40F2FA
:105340000032C100C0F2013222FA01F1032888BF05
:105350000321C8B280BD0000014690F89C020422DF
:1053600081F89D02002081F89C22704780B5D0F81A
:10537000C402FCF785FA40F20032C100C0F20132EB
:1053800022FA01F1032888BF0321C8B280BD0000C2
:105390000A7802704A7842704A8842808A888280FD
:1053A000C988C18070470000D0F8B822002A04BF25
:1053B00003207047126810470A78C2F34112531E47
:1053C000022B03D2D0F8B8229268104770B582B091
:1053D000002A40F0B8804A78092A00F2B480DFE859
:1053E00002F0052CB24FB25A79B21A3C90F89C22C6
:1053F000013A022A00F2A780C988022940F0A3805E
:10540000D0F8A4120322002908BF0122014641F866
:105410000C2F022233E1C988012940F0948090F8D2
:105420009C124A1E022A80F089800024014641F81D
:10543000084F0122FFF7FCFD8EE090F89C22013A14
:10544000022A00F2808049880024012940F08480EB
:10545000C0F8A442FFF7FAFD7EE0498840F2B0456B
:10546000C2F2000511F0FE0F29704CD080210446D5
:10547000FFF760FF20460021FFF75CFF03246BE08D
:105480004988012940F002810121C0F8A412FFF7E8
:10549000DDFD002460E08A88002A54D1CA88002AF1
:1054A00051D14D887F2D4ED890F89C1203294AD0B7
:1054B000E9B280F89E520446FFF7FAFE20462646DF
:1054C000FFF7C4FD002D14BF0220012086F89C02C6
:1054D000002441E04A884FF0FF3303EB12230026FB
:1054E0000E2BADF8066047D8DFE803F008543946C4
:1054F00046636E4646464646464648000E46D0F847
:10550000B4120A683FE090F89C22032A6CD0022A69
:1055100040F08F800A06BAD001F00102C9B24260A1
:105520000546FFF741FF0446002800F0C8802846E2
:105530008021FFF7FFFE284600210BE0032902D15E
:10554000011D01229BE080210446FFF7F3FE204667
:1055500000210024FFF7EEFE204602B070BDD2B25B
:10556000052A09D8DFE802F003C1B7BCB2C60E466F
:10557000D0F8B4124A6805E00E4629E00E46D0F88D
:10558000B412CA6922B30446007C0DF106019047AB
:10559000054666E00E46017C0446D0F8B8020029B4
:1055A0000CBF816AC16A0DF10600884705460220DA
:1055B00056E00E46017C59B90446D0F8B802416B5A
:1055C0000DF106008847E3E70E46017C00293ED036
:1055D00080210546FFF7AEFE284600212C46002517
:1055E000FFF7A8FE00203DE00A065BD0426801F00C
:1055F00001018A423FF44BAFD1B20446FFF7F2FCFF
:105600002978204661602546FFF7CEFE0446002833
:1056100051D028468021FFF78DFE28460021FFF754
:1056200089FE29792846FFF7DDFC022085F89C02D7
:1056300092E780210446FFF77DFE20460021FFF718
:1056400079FE29782046FFF7CDFC032484E7044641
:10565000D0F8B802016B0DF1060088470546072017
:105660006870012090B1F2886AB1BDF8061079B176
:10567000914238BF0A46ADF8062020462946FFF77A
:10568000D7FC002468E72046FFF7E0FC002463E72E
:1056900020468021FFF74EFE20460021FFF74AFEFC
:1056A000002459E702220024C9B280F89C224460F9
:1056B0000546FFF797FC2846FFF7C8FC4CE728464D
:1056C000FFF7C4FC032085F89C0245E70E46D0F89E
:1056D000B4124A6956E70E46D0F8B412CA6851E7C8
:1056E0000E46D0F8B4120A694CE70E46D0F8B41250
:1056F0008A6847E70E46D0F8B4128A6942E700008C
:10570000B0B50A78C2F34112531E022B05D2D0F86D
:10571000B8229268BDE8B04010478ABB4A780C4670
:10572000097922B3012A14D0032A29D190F89C22A6
:10573000032A12D1628842B911F07F0205D0E288B3
:105740001AB90446FFF7F6FD2046FFF77FFC00205C
:10575000B0BD90F89C22032A1CD0022A10D14A0620
:105760000ED00446FFF7E6FD204680210EE090F8BB
:105770009C22032A22D0022A08BF5FEA416245D058
:1057800080210446FFF7D6FD20460021FFF7D2FD19
:105790000020B0BD6288002A49D14A0603D00546E0
:1057A000FFF760FC28460546FFF750FCD5F8B80225
:1057B000214682682846BDE8B040104701F00F023C
:1057C00002EB8202802900EB82022CBF928CB2F89D
:1057D0006421002AD4D001F07F0202EB820200EBA8
:1057E000820202F1140401EB810200EB82028029A3
:1057F00038BF02F5AA744A0613D00546FFF7CAFC63
:1058000001462846002918BF01210BE009064FF088
:1058100014024FF0000358BF4FF4AA72811883504E
:1058200002E00021216021460222FFF701FC002056
:10583000B0BD0000B0B50A7802F06002602A08D05E
:1058400090F89C22013A022A03D88A8812F0FE0FAF
:105850000AD080210446FFF76DFD20460021002478
:10586000FFF768FD2046B0BDD0F8B8220546926823
:105870000C469047E1880446002908BF002CF1D16E
:105880002846FFF7E3FB2046B0BD00002DE9F041BC
:105890000B78024691F803E030F8230047F2706677
:1058A000BEF1030F20EA060410D80020DFE80EF056
:1058B00002060F0A44F4007409E000BF44F4806457
:1058C00005E000BF44F4C06401E000BF012048F2DD
:1058D0008006CFF6FF7644EA060522F8235032F818
:1058E000235040F60F7425401D432E4322F82360B9
:1058F0000E7B48F2800C002E52D032F8234040F646
:105900000F652C4048F28005BEF1020F08BF05F577
:1059100080752C4322F82340B2F850400E8902EBE8
:10592000C3052C4426F00106A4F80064B2F85040E8
:105930004E892C4426F00105A4F804544D7832F821
:105940002340002D58D0610409D532F8231040F6C9
:105950000F742140614401F5804122F8231032F890
:105960002310490608D532F8231040F60F74214061
:105970006144403122F8231032F8231040F63F747E
:1059800021400CF120044C40BEF1010F08BF41EA58
:105990000C0422F8234032F8231043F60F77C4E0BA
:1059A0004E78B2F85040CF88DD00002E27F0010677
:1059B00052D051192144A1F8006432F8231049064D
:1059C00008D532F8231040F60F742140614440316D
:1059D00022F8231032F8231040F63F74BEF1010F75
:1059E00001EA040100F0A2800CF12007794022F8BE
:1059F0002310BDE8F08100BF670409D532F8237099
:105A000040F60F763740674407F5804722F8237049
:105A100032F82370DD007F0608D532F8237040F697
:105A20000F7637406744403722F82370B2F8504071
:105A300002EB050E0EF202452E5B6FF39F262E53EE
:105A4000096959B33E292BD801F001062F5B06EBFB
:105A5000510647EA862633E015442F19A7F8046457
:105A6000B2F850E005F2064434F80E506FF39F256B
:105A700024F80E50096900295ED03E2960D801F053
:105A8000010534F80E6005EB510146EA812124F846
:105A90000E1032F82310490469D472E0665B0AE004
:105AA000CF064FEA51162F5B4FF0FF3808BF08EBC7
:105AB000511647EA862648F20007CFF6FF773E43A5
:105AC0002E53B2F850400EF206452F5B6FF39F271E
:105AD0002F5349B13E2909D801F001072E5B07EB8E
